S010000041746D656C4156522E7372656338
S113000045C0000058C0000056C0000054C00000A5
S113001052C0000050C000004EC000004CC00000A0
S11300204AC0000048C0000046C0000044C00000B0
S113003042C0000040C000003EC000003CC00000C0
S11300403AC0000038C0000036C0000034C00000D0
S113005032C0000030C000002EC000002CC00000E0
S11300602AC0000028C0000026C0000024C00000F0
S113007022C0000020C000001EC000001CC0000000
S11300801AC0000018C0000016C0000011241FBED2
S1130090CFEFD0E1DEBFCDBF11E0A0E0B1E0E8E9F1
S11300A0F1E000E00BBF02C007900D92A030B10751
S11300B0D9F76CD06FC0A4CF181619066CF420E0E1
S11300C030E0EFECF7E03197F1F700C000002F5F6C
S11300D03F4F82179307A9F7089581E082BB859962
S11300E005C0869906C08DE690E008958BE890E0FF
S11300F008958CE790E0089582E082BB859905C05D
S1130100879906C08CE790E008958BE890E0089505
S11301108DE690E0089584E082BB859907C08699B6
S113012008C0879909C08BE890E008958FE990E0B2
S113013008958CE790E008958DE690E0089588E0B6
S113014082BB859907C0869908C0879909C08FE941
S113015090E0089583EB90E0089583EB90E0089598
S11301608DE690E0089580E182BB879903C083EB1C
S113017090E008958DE690E00895CDE6D0E0FE018C
S11301800995EC0188EC90E097DFF9CFF6DF81E088
S10B019090E00895F894FFCFFC
S90300DA22
