S010000041746D656C4156522E7372656338
S113000045C0000058C0000057C000006AC000008E
S113001052C0000050C000004EC000004CC00000A0
S11300204AC0000048C0000046C0000044C00000B0
S113003042C0000040C000003EC000003CC00000C0
S11300403AC0000038C0000036C0000034C00000D0
S113005032C0000030C000002EC000002CC00000E0
S11300602AC0000028C0000026C0000024C00000F0
S113007022C0000020C000001EC000001CC0000000
S11300801AC0000018C0000016C0000011241FBED2
S1130090CFEFD0E1DEBFCDBF11E0A0E0B1E0EEE2F2
S11300A0F1E000E00BBF02C007900D92A030B10751
S11300B0D9F737D03AC0A4CF1F920F920FB60F9240
S11300C011248F9385B3811103C081E085BB03C0E4
S11300D085B3880F85BB8F910F900FBE0F901F9033
S11300E018951F920F920FB60F9211248F9385B318
S11300F0811103C080E885BB03C085B3869585BBA9
S11301008F910F900FBE0F901F9018958FEF84BBA7
S113011081E085BB88E280936A0086E089BF789499
S1110120FFCFF4DF81E090E00895F894FFCF64
S9030000FC
