S00D0000536E616B652E7372656325
S113000045C0000053C0000051C000004FC00000B4
S11300104DC000004BC0000049C0000047C00000B4
S113002045C0000043C0000041C000003FC00000C4
S11300303DC000003BC0000039C0000037C00000D4
S113004035C0000033C0000031C000002FC00000E4
S11300502DC000002BC0000029C0000027C00000F4
S113006025C0000023C0000021C000001FC0000004
S11300701DC000001BC0000019C0000017C0000014
S113008015C0000013C0000011C0000011241FBEE1
S1130090CFEFD0E1DEBFCDBF21E0A0E0B1E001C0F1
S11300A01D92A830B207E1F77DD097C0A9CF08957B
S11300B01092710080E280937000089584EA809326
S11300C07400E4E7F0E080818823ECF708958093DE
S11300D0730084E880937400E4E7F0E0808188236F
S11300E0ECF708950F931F93CF93DF93C82FE6DFA8
S11300F08C2FEDDF81E2EBDF04E710E0D4E9F801B7
S1130100D083DCDF8C2FE3DF80EAE1DFF801D083EA
S1130110D5DF8C2FDCDF81EEDADFF801D083CEDF90
S11301208C2FD5DF81E8D3DFF801D083C7DF8C2F94
S1130130CEDF80E0CCDFD8E0C5E5C0958C2F80FB16
S1130140879587F9C4DF80E0C2DFD150B1F784E935
S113015080937400DF91CF911F910F910895A8DFD0
S113016088EEC0CF08950F931F93CF93DF93A6DF3C
S113017088EEADDF80E0ABDFC8E0D1E000E011E065
S11301808A9180FB879587F9A2DF80E0A0DFC01702
S1130190D107B1F784E980937400DF91CF911F9167
S11301A00F910895DCDF84EF91E006D040E060E039
S11301B081E37DDFD8DFFFCF181619066CF420E049
S11301C030E0EFECF7E03197F1F700C000002F5F6B
S11101D03F4F82179307A9F70895F894FFCFC5
S9030000FC
