S00D0000536E616B652E7372656325
S113000072C000008DC000008BC0000089C00000D9
S113001087C0000085C0000083C0000081C00000CC
S11300207FC000007DC000007BC0000079C00000DC
S113003077C0000075C0000073C0000071C00000EC
S11300406FC000006DC000006BC0000069C00000FC
S113005067C0000065C0000063C0000061C000000C
S11300605FC000005DC000005BC0000059C000001C
S113007057C0000055C0000053C0000051C000002C
S11300804FC000004DC000004BC00000080000003D
S1130090BE922449123EABAAAA2ABECDCCCC4C3E79
S11300A000000080BEABAAAAAA3E00000000BF0068
S11300B00000803F0000000000084178D3BB438764
S11300C0D1133D190E3CC3BD4282AD2B3E68EC8278
S11300D076BED98FE1A93E4C80EFFFBE01C4FF7FFD
S11300E03F000000000011241FBECFEFD0E1DEBFAF
S11300F0CDBF11E0A0E0B1E0E6E5F0E100E00BBF28
S113010002C007900D92AC30B107D9F721E0ACE002
S1130110B1E001C01D92A532B207E1F78DD299C7B3
S11301206FCFFC010FB6F894609121017091220108
S113013080912301909124010FBE309721F06083B8
S11301407183828393830895E62FF0E0E45FFE4F8A
S113015021E030E002C0220F331F8A95E2F780814C
S1130160282B20830895ECE0F1E084E191E01192E2
S1130170E817F907E1F708951092710080E280937F
S11301807000089584EA80937400E4E7F0E08081CD
S11301908823ECF708958093730084E880937400B7
S11301A0E4E7F0E080818823ECF708950F931F9330
S11301B0CF93DF93082FE6DF802FEDDF81E2EBDFC3
S11301C0C4E7D0E014E91883DDDF802FE4DF80EAA0
S11301D0E2DF1883D7DF802FDEDF81EEDCDF1883D8
S11301E0D1DF802FD8DF81E8D6DF1883DF91CF916C
S11301F01F910F910895C0DF88EED8CF08950F9313
S11302001F93CF93DF93BEDF88EEC5DF80E0C3DFAB
S1130210C4E1D1E00CE011E08A9180FB879587F975
S1130220BADF80E0B8DFC017D107B1F784E9809363
S11302307400DF91CF911F910F910895843029F4B8
S1130240909116019230A9F40895823029F4909186
S11302501601943071F40895813029F490911601B7
S1130260933039F40895833021F49091160191303C
S113027011F0809316010895FC019081DB018C91AB
S1130280981309C021E090E0318111968C913813C4
S113029020E0822F089580E090E00895EF92FF928D
S11302A00F931F93CF93DF9300911A01002371F0F2
S11302B07B01C82FD92F10E0B701CE01DDDF0097F5
S11302C041F41F5F22961013F7CF05C080E090E041
S11302D002C081E090E0DF91CF911F910F91FF90D8
S11302E0EF900895CF93DF93C0911B01D0911C012F
S11302F03CD687709078992324F40197886F9F6F78
S113030001968883C0911B01D0911C012ED6877061
S11303109078992324F40197886F9F6F01968983BD
S113032060911B0170911C01809114019091150141
S1130330B5DF892B09F0D6DFDF91CF910895809343
S113034019010895909119018DEC989F812D112424
S113035082958F70981B90931901089580911901CB
S11303600895CF93DF93DBD180911A0190E0029737
S1130370E0D1F9DE80911A018823A9F0C0E0D0E031
S1130380CE01880F991FE0911701F0911801E80F31
S1130390F91F61818081D8DE219680911A0190E055
S11303A0C817D9076CF3E0911B01F0911C0161811E
S11303B08081CADE24DFDF91CF9108950F931F93CC
S11303C0CF93DF935AD17BD180E090E0AADECB01BA
S11303D0CFD582E080931A01809114019091150188
S11303E0F4D48091170190911801EFD480911B01EE
S11303F090911C01EAD400910A0110910B01C801EB
S11304004CD490931C0180931B0180911A01809F0E
S1130410E001819FD00D1124CE013FD490931501AA
S113042080931401CE0139D4FC0190931801809378
S1130430170183E0808394E09183828395E0938322
S1130440809316014FDF8DDFDF91CF911F910F91C4
S11304500895CF92DF92EF92FF920F931F93CF9361
S1130460DF9300D0CDB7DEB70091170110911801CA
S1130470F801808191819A83898380911601823069
S113048081F118F4813031F038C0833081F0843048
S1130490D9F033C08A8190E00996877090789923C7
S11304A024F40197886F9F6F01968A8326C08A81FE
S11304B090E0079687709078992324F40197886FC9
S11304C09F6F01968A8319C0898190E0079687708F
S11304D09078992324F40197886F9F6F01968983FC
S11304E00CC0898190E0099687709078992324F450
S11304F00197886F9F6F01968983BE016F5F7F4F5D
S1130500C801CCDE892B99F060911A0170E061502A
S11305107048660F771F600F711FCE010196ACDE25
S1130520892B29F480ED97E07BD148DF7AC0609174
S11305301B0170911C01CE0101969EDE892B09F4EA
S113054043C080911A018F5F80931A018091140136
S1130550909115013AD4C0900A01D0900B0180917A
S11305601A018C9D80018D9D100D1124C80195D315
S11305709093150180931401E0901701F0901801F5
S1130580A8014C195D09B7010296FDD4C7011DD419
S113059020911A0180910A0190910B01AC01249FD2
S11305A0C001259F900D112478D390931801809356
S11305B01701E0911401F091150189819A819183C9
S11305C0808390DEBFDE1CC0E0901401F090150122
S11305D080911A0190E0019720910A0130910B015A
S11305E0829FA001839F500D929F500D1124B8014A
S11305F0C7010296C8D489819A81F70191838083C7
S113060080911701909118012091140130911501E6
S113061030931801209317019093150180931401CE
S1130620A0DE0F900F90DF91CF911F910F91FF905B
S1130630EF90DF90CF900895DEDD95DDE0DDBEDE46
S113064084EF7DDE8FEF87BB8ABB88DE90E0E8D045
S1130650CD9B03C082E0F2DD0EC0CE9B03C083E0DD
S1130660EDDD09C0CF9B03C084E0E8DD04C0B69B88
S113067002C081E0E3DDEDDEE8CF8FEF87BBBB98FE
S1130680C09A82E58DB908958FB9779BFECF0895FE
S113069098B321E030E002C0220F331F8A95E2F7BD
S11306A02095292328BB089598B321E030E002C0A7
S11306B0220F331F8A95E2F7292B28BB089580E087
S11306C0E7DF89E0E1DF8FE0DFDF80E0EDDF80E07E
S11306D0DFDF8AE0D9DF84E0D7DF80E0E5DF80E098
S11306E0D7DF8BE0D1DF83E0CFDF80E0DDDF80E0A8
S11306F0CFDF8CE0C9DF81E0C7DF80E0D5CF08958C
S1130700CF93DF93D82FC62F80E0C2DF8D2FBCDFBD
S11307108C2FBADF80E0C8DFDF91CF910895CF93AB
S1130720C1E06FE08C2FECDFCF5FC530D1F7CF9104
S11307300895AF92BF92CF92DF92EF92FF920F9300
S11307401F93CF93DF9389312CEF920714F489E13F
S11307509CEFEC01C03187E2D80714F0CFE0D7E278
S1130760DD233CF1BE010D2E000C880B990B9CD0AF
S1130770FFD067D06B012FEFC21AD20A1C141D04DC
S11307800CF043C001E010E00F2EFAE0AF2EB12CC4
S1130790F02DCE01B5015AD2E62EF72E682F802F08
S11307A0AFDFCE2DDF2D0F5F1F4FC016D1068CF7A4
S11307B02CC0D195C195D109BE010D2E000C880B1A
S11307C0990B72D0D5D03DD06B012FEFC21AD20A4B
S11307D06AE081E08C0D94DF1C141D04B4F401E084
S11307E010E00F2EFAE0AF2EB12CF02DCE01B501A2
S11307F02DD2E62EF72E682F802F82DFCE2DDF2D0F
S11308000F5F1F4FC016D1068CF7DF91CF911F9158
S11308100F91FF90EF90DF90CF90BF90AF9008952D
S1130820181619066CF420E030E0EFECF7E031978D
S1130830F1F700C000002F5F3F4F82179307A9F71D
S1130840089504D06894B1118DC0089570D088F0D3
S11308509F5790F0B92F9927B751A0F0D1F0660FA8
S1130860771F881F991F1AF0BA95C9F712C0B130C3
S113087081F077D0B1E0089574C0672F782F88276E
S1130880B85F39F0B93FCCF3869577956795B39502
S1130890D9F73EF490958095709561957F4F8F4F71
S11308A09F4F0895E89409C097FB3EF49095809576
S11308B0709561957F4F8F4F9F4F9923A9F0F92F22
S11308C096E9BB279395F695879577956795B795A0
S11308D0F111F8CFFAF4BB0F11F460FF1BC06F5F86
S11308E07F4F8F4F9F4F16C0882311F096E911C098
S11308F0772321F09EE8872F762F05C0662371F0B9
S113090096E8862F70E060E02AF09A95660F771FCC
S1130910881FDAF7880F9695879597F9089557FDFC
S11309209058440F551F59F05F3F71F04795880F59
S113093097FB991F61F09F3F79F0879508951216F0
S113094013061406551FF2CF4695F1DF08C016169C
S113095017061806991FF1CF86957105610508944D
S11309600895E894BB2766277727CB0197F9089564
S11309700AD029ED3BE54EED5EE345C00EF011C112
S11309801EC1689408C1D3DFC8F39923D1F3C6F319
S1130990DF93CF931F930F93FF92C92FDD278823F3
S11309A02AF02197660F771F881FDAF720E030E0DE
S11309B040E85FEB9FE3883920F0803E30F02196D9
S11309C08F7785D0ECE8F0E003C081D0E9EBF0E06C
S11309D0F9D08B01BE01EC01FB2E6F57710975959F
S11309E0771F880B990B60DF28E132E741E35FE36F
S11309F016D0AF2D9801AE01FF900F911F91CF91AA
S1130A00DF9176D012C10BD010C101D128F006D1EC
S1130A1018F0952309F0BFC0D2C01124A3CF7FDF03
S1130A20A0F3959FD1F3950F50E0551F629FF001FD
S1130A30729FBB27F00DB11D639FAA27F00DB11D56
S1130A40AA1F649F6627B00DA11D661F829F2227DF
S1130A50B00DA11D621F739FB00DA11D621F839F66
S1130A60A00D611D221F749F3327A00D611D231F3C
S1130A70849F600D211D822F762F6A2F11249F578A
S1130A8050408AF0E1F088234AF0EE0FFF1FBB1FAD
S1130A90661F771F881F91505040A9F79E3F51054C
S1130AA070F079C05FCF5F3FECF3983EDCF386953E
S1130AB077956795B795F795E7959F5FC1F7FE2BF7
S1130AC0880F911D9695879597F908955058BB27DF
S1130AD0AA270ED0AAC09BD030F0A0D020F031F4C9
S1130AE09F3F11F41EF46BC00EF4E095E7FB53C076
S1130AF0E92F15DF80F3BA17620773078407950798
S1130B0018F071F49EF52DCF0EF4E0950B2EBA2F4C
S1130B10A02D0B01B90190010C01CA01A0011124FF
S1130B20FF27591B99F0593F50F4503E68F11A16AB
S1130B30F040A22F232F342F4427585FF3CF46953C
S1130B4037952795A795F0405395C9F77EF41F165E
S1130B50BA0B620B730B840BBAF09150A1F0FF0F28
S1130B60BB1F661F771F881FC2F70EC0BA0F621F14
S1130B70731F841F48F4879577956795B795F79504
S1130B809E3F08F0B3CF9395880F08F09927EE0F96
S1130B9097958795089597F99F6780E870E060E0DE
S1130BA008959F3F31F0915020F48795779567958C
S1130BB0B795880F911D9695879597F908959FEF9E
S1130BC080EC0895DF93CF931F930F93FF92EF92DE
S1130BD0DF927B018C01689405C0DA2EEF011FDFE0
S1130BE0FE01E894A5912591359145915591AEF377
S1130BF0EF017EDFFE019701A801DA9479F7DF9017
S1130C00EF90FF900F911F91CF91DF9108950024F1
S1130C100A941616170618060906089500240A945D
S1130C2012161306140605060895092E0394000CE3
S1130C3011F4882352F0BB0F40F4BF2B11F460FF72
S1130C4004C06F5F7F4F8F4F9F4F089597FB072E10
S1130C5016F4009406D077FD08D00BD007FC05D01D
S1130C603EF4909581959F4F0895709561957F4FBF
S1130C700895AA1BBB1B51E107C0AA1FBB1FA617DF
S1130C80B70710F0A61BB70B881F991F5A95A9F731
S1130C9080959095BC01CD0108950F931F93CF9338
S1130CA0DF938230910510F482E090E0E0911F011F
S1130CB0F091200120E030E0A0E0B0E0309719F19D
S1130CC0408151810281138148175907C8F0841764
S1130CD0950769F4109731F012960C9312971396B6
S1130CE01C9327C000931F011093200122C02115DB
S1130CF0310519F04217530718F49A01BD01EF01A9
S1130D00DF01F801DBCF21153105F9F0281B390B80
S1130D102430310580F48A819B816115710521F0AD
S1130D20FB019383828304C09093200180931F016D
S1130D30FE01329644C0FE01E20FF31F81939193AA
S1130D4022503109398328833AC020911D01309102
S1130D501E01232B41F420910201309103013093B1
S1130D601E0120931D0120910001309101012115E4
S1130D70310541F42DB73EB740910401509105016E
S1130D80241B350BE0911D01F0911E01E217F307BE
S1130D90A0F42E1B3F0B2817390778F0AC014E5FE7
S1130DA05F4F2417350748F04E0F5F1F50931E0105
S1130DB040931D018193919302C0E0E0F0E0CF01E4
S1130DC0DF91CF911F910F910895CF93DF930097F7
S1130DD009F481C0FC01329713821282A0911F0191
S1130DE0B0912001109781F420813181820F931FEB
S1130DF020911D0130911E012817390751F5F093F8
S1130E001E01E0931D0167C0ED0120E030E0CE1724
S1130E10DF0740F44A815B819E0141155105F1F0E1
S1130E20EA01F5CFD383C28340815181840F951F9A
S1130E30C817D90759F488819981840F951F0296A0
S1130E40918380838A819B819383828321153105D9
S1130E5029F4F0932001E0931F013DC0E901FB83D5
S1130E60EA8349915991C40FD51FEC17FD0761F42A
S1130E7080819181840F951F0296E901998388836B
S1130E80828193819B838A83E0E0F0E012968D91C6
S1130E909C911397009719F0FD01DC01F7CF8D9118
S1130EA09C9111979D012E5F3F4F820F931F2091BC
S1130EB01D0130911E012817390769F4309729F470
S1130EC01092200110921F0102C013821282B0936B
S1130ED01E01A0931D01DF91CF9108958F929F92DF
S1130EE0AF92BF92CF92DF92EF92FF92CF93DF93B4
S1130EF0EC01688179818A819B8161157105810585
S1130F00910521F464E279ED8BE597E02DE133EF6F
S1130F1041E050E041D049015A019B01AC01A7EAEC
S1130F20B1E456D06B017C01ACEEB4EFA5019401A1
S1130F305BD0DC01CB018C0D9D1DAE1DBF1DB7FF29
S1130F4003C00197A109B04888839983AA83BB830E
S1130F509F77DF91CF91FF90EF90DF90CF90BF907C
S1130F60AF909F908F900895B9CF86E091E0B6CF6F
S1130F70A0E0B0E08093060190930701A0930801DC
S1130F80B09309010895FB01DC0102C001900D92A8
S1130F9041505040D8F70895052E97FB16F400945D
S1130FA00FD057FD05D024D007FC02D046F408C06A
S1130FB050954095309521953F4F4F4F5F4F089581
S1130FC090958095709561957F4F8F4F9F4F0895B1
S1130FD031D0A59F900DB49F900DA49F800D911DBD
S1130FE011240895B7FFF4CFF3DF821B930B089508
S1130FF0A1E21A2EAA1BBB1BFD010DC0AA1FBB1F19
S1131000EE1FFF1FA217B307E407F50720F0A21B8A
S1131010B30BE40BF50B661F771F881F991F1A94F7
S113102069F760957095809590959B01AC01BD0121
S1131030CF010895A29FB001B39FC001A39F700D7B
S1131040811D1124911DB29F700D811D1124911DCC
S10910500895F894FFCF9F
S10F105600002501200001000000020041
S9030000FC
