S00D0000536E616B652E7372656325
S113000045C0000060C000005EC000005CC000008D
S11300105AC0000058C0000056C0000054C0000080
S113002052C0000050C000004EC000004CC0000090
S11300304AC0000048C0000046C0000044C00000A0
S113004042C0000040C000003EC000003CC00000B0
S11300503AC0000038C0000036C0000034C00000C0
S113006032C0000030C000002EC000002CC00000D0
S11300702AC0000028C0000026C0000024C00000E0
S113008022C0000020C000001EC0000011241FBEBA
S1130090CFEFD0E1DEBFCDBF21E0A0E0B1E001C0F1
S11300A01D92A830B207E1F711E0A0E0B1E0E0E171
S11300B0F2E000E00BBF02C007900D92A030B10740
S11300C0D9F782D0A3C09CCFE62FF0E0E050FF4FD9
S11300D021E030E002C0220F331F8A95E2F78081CD
S11300E0282B20830895E62FF0E0E050FF4F108284
S11300F00895E0E0F1E087E091E01192E817F90754
S1130100E1F708951092710080E2809370000895E1
S113011084EA80937400E4E7F0E080818823ECF7BC
S113012008958093730084E880937400E4E7F0E01A
S113013080818823ECF708950F931F93CF93DF9367
S1130140082FE6DF802FEDDF81E2EBDFC4E7D0E0AC
S113015014E91883DDDF802FE4DF80EAE2DF18830F
S1130160D7DF802FDEDF81EEDCDF1883D1DF802F45
S1130170D8DF81E8D6DF1883DF91CF911F910F91EB
S11301800895C0DF88EED8CF08950F931F93CF93BF
S1130190DF93BEDF88EEC5DF80E0C3DFC8E0D1E0D7
S11301A000E011E08A9180FB879587F9BADF80E04F
S11301B0B8DFC017D107B1F784E980937400DF91E9
S11301C0CF911F910F910895DCDF93DFDEDF63E0B1
S11301D085E07ADFDADF84EF91E007D063E085E041
S11301E082DFD3DF81E090E00895181619066CF4DD
S11301F020E030E0EFECF7E03197F1F700C00000C9
S11302002F5F3F4F82179307A9F70895F894FFCF04
S9030000FC
