S00D0000536E616B652E7372656325
S113000045C0000053C0000051C000004FC00000B4
S11300104DC000004BC0000049C0000047C00000B4
S113002045C0000043C0000041C000003FC00000C4
S11300303DC000003BC0000039C0000037C00000D4
S113004035C0000033C0000031C000002FC00000E4
S11300502DC000002BC0000029C0000027C00000F4
S113006025C0000023C0000021C000001FC0000004
S11300701DC000001BC0000019C0000017C0000014
S113008015C0000013C0000011C0000011241FBEE1
S1130090CFEFD0E1DEBFCDBF21E0A0E0B1E001C0F1
S11300A01D92A830B207E1F782D0A3C0A9CFE62FF2
S11300B0F0E0E050FF4F21E030E002C0220F331F98
S11300C08A95E2F78081282B20830895E62FF0E0BB
S11300D0E050FF4F10820895E0E0F1E087E091E006
S11300E01192E817F907E1F708951092710080E280
S11300F080937000089584EA80937400E4E7F0E04C
S113010080818823ECF708958093730084E88093BA
S11301107400E4E7F0E080818823ECF708950F93FE
S11301201F93CF93DF93082FE6DF802FEDDF81E26B
S1130130EBDFC4E7D0E014E91883DDDF802FE4DFD0
S113014080EAE2DF1883D7DF802FDEDF81EEDCDF99
S11301501883D1DF802FD8DF81E8D6DF1883DF91C1
S1130160CF911F910F910895C0DF88EED8CF0895E5
S11301700F931F93CF93DF93BEDF88EEC5DF80E03C
S1130180C3DFC8E0D1E000E011E08A9180FB8795ED
S113019087F9BADF80E0B8DFC017D107B1F784E987
S11301A080937400DF91CF911F910F910895DCDF4C
S11301B093DFDEDF63E085E07ADFDADF84EF91E06E
S11301C007D063E085E082DFD3DF81E090E008952B
S11301D0181619066CF420E030E0EFECF7E03197E4
S11301E0F1F700C000002F5F3F4F82179307A9F774
S10901F00895F894FFCF0E
S9030000FC
