S010000041746D656C4156522E7372656338
S113000045C0000060C0000080C00000B1C0000016
S11300105AC0000058C0000056C0000054C0000080
S113002052C0000050C000004EC000004CC0000090
S11300304AC0000048C0000046C0000044C00000A0
S113004042C0000040C000003EC000003CC00000B0
S11300503AC0000038C0000036C0000034C00000C0
S113006032C0000030C000002EC000002CC00000D0
S11300702AC0000028C0000026C0000024C00000E0
S113008022C0000020C000001EC0000011241FBEBA
S1130090CFEFD0E1DEBFCDBF11E0A0E0B1E0E2E2FE
S11300A0F2E000E00BBF02C007900D92AC32B10742
S11300B0D9F721E0ACE2B1E001C01D92AE32B20743
S11300C0E1F7A9D0ACC09CCF181619066CF420E057
S11300D030E0EFECF7E03197F1F700C000002F5F5C
S11300E03F4F82179307A9F708952FEF24BB803160
S11300F0910518F089E785BB0895880F991FFC01C5
S1130100E050FF4F808185BB08951F920F920FB678
S11301100F9211240BB60F922F933F934F935F933B
S11301206F937F938F939F93AF93BF93EF93FF93BB
S113013080912C0190912D01019690932D01809333
S11301402C01D3DF88EC90E0BFDFFF91EF91BF91EA
S1130150AF919F918F917F916F915F914F913F915B
S11301602F910F900BBE0F900FBE0F901F901895FC
S11301701F920F920FB60F9211240BB60F922F936A
S11301803F934F935F936F937F938F939F93AF931B
S1130190BF93EF93FF9380912C0190912D010197D0
S11301A090932D0180932C01A0DF88EC90E08CDFEC
S11301B0FF91EF91BF91AF919F918F917F916F913B
S11301C05F914F913F912F910F900BBE0F900FBEF7
S11301D00F901F9018958FEF84BB0F2EFCE2EF2E2B
S11301E0F1E0FF2EF02D00E211E0E8018881229673
S11301F085BB88EC90E068DFCE15DF05B9F7F80120
S113020080810E5F1F4F85BB84E690E05DDF0E1595
S11302101F05A9F7E8CFDFDF81E090E00895F894A7
S1050220FFCF0A
S11302223F0006005B004F0066006D007D00070082
S11302327F006F0077007C0039005E007900710056
S10F02420800100020000100020004006D
S9030000FC
